:100000000C9417010C942B010C942B010C942B01D4
:100010000C942B010C942B010C942B010C942B01B0
:100020000C942B010C942B010C942B010C942B01A0
:100030000C942B010C942B010C942B010C942B0190
:100040000C942B010C942B010C942B010C942B0180
:100050000C942B010C942B010C942B010C942D016E
:100060000C942B010C942B010C942B010C942B0160
:100070000C942B010C942B010C942B010C942B0150
:100080000C942B010C942B010C942B010C942B0140
:100090000C942B010C942B010C942B010C942B0130
:1000A0000C942B010C942B010C942B010C942B0120
:1000B0000C942B010C942B010C942B010C942B0110
:1000C0000C942B010C942B010C942B010C942B0100
:1000D0000C942B010C942B010C942B010C942B01F0
:1000E0000C942B010C9475020C9452020C946D022A
:1000F0000C9483020C944E020C9467020C948902B7
:100100000C9471020C9439020C947F020C9434020A
:100110000C945A020C9463020C947B020C945602C9
:100120000C948D020C945D02000021002400270035
:100130002A002D00300033000101000004010701F6
:100140000A0100002200250028002B002E003100AB
:10015000340002010000050108010B010505050539
:10016000070508080808020202020A0A080804042F
:10017000040401010101010101010303030303035D
:100180000303040707070C0C0C0C0C0C0C0C0202EC
:10019000020206060606060606060B0B0B0B0B0BE9
:1001A0000B0B010210202008081020401020408076
:1001B000020102010804020101020408102040802B
:1001C00080402010080402018004020180402010B9
:1001D0000804020108040201010204081020408002
:1001E000010204081020408000000A0B02090C0DD7
:1001F0000E080703040100000000000000000000DA
:1002000000000000000000000000000000000000EE
:1002100000000000121110000000000000000000AB
:100220000000000000000000000000000000112499
:100230001FBECFEFD1E2DEBFCDBF00E00CBF22E09A
:10024000A0E0B2E001C01D92A930B207E1F70E9420
:1002500077010C9499020C9400001F920F920FB634
:100260000F9211242F933F938F939F93AF93BF933C
:100270008091050290910602A0910702B0910802B8
:100280003091040223E0230F2D3758F50196A11D6C
:10029000B11D209304028093050290930602A0935F
:1002A0000702B09308028091000290910102A09190
:1002B0000202B09103020196A11DB11D80930002BC
:1002C00090930102A0930202B0930302BF91AF91F9
:1002D0009F918F913F912F910F900FBE0F901F9084
:1002E000189526E8230F0296A11DB11DD2CF789450
:1002F00084B5826084BD84B5816084BD85B582602B
:1003000085BD85B5816085BD80916E0081608093DB
:100310006E00109281008091810082608093810044
:100320008091810081608093810080918000816054
:10033000809380008091B10084608093B1008091AF
:10034000B00081608093B0008091910082608093C2
:100350009100809191008160809391008091900044
:100360008160809390008091A10082608093A100C1
:100370008091A10081608093A1008091A0008160A4
:100380008093A0008091210182608093210180915F
:1003900021018160809321018091200181608093FF
:1003A000200180917A00846080937A0080917A00A5
:1003B000826080937A0080917A00816080937A00D5
:1003C00080917A00806880937A001092C100CFEA11
:1003D000D1E0FE01249109E611E0F801849188231F
:1003E00099F090E0880F991FFC01E85DFE4FA59100
:1003F000B491FC01EE5BFE4F859194918FB7F89418
:100400009C91292B2C938FBF95EFE92E91E0F92E2B
:1004100020E0C22E20E0D22EF7018491FE0124912B
:10042000F8019491992309F432C0882311F1815085
:100430008231F8F4E82FF0E08827EE5DFD4F8F4F12
:100440000C94910256025A0234024E0252023902B0
:100450005D02630267026D02710275027B027F0218
:100460003902830289028D02809180008F77809308
:100470008000E92FF0E0EE0FFF1FEE5BFE4FA5912D
:10048000B4918FB7F8949C91292B2C938FBFC114F2
:10049000D10409F4C1CF0E940000BECF809180003A
:1004A0008F7DE5CF80918000877FE1CF84B58F7706
:1004B00084BDDFCF84B58F7DFBCF8091B0008F7777
:1004C0008093B000D6CF8091B0008F7DF9CF80911E
:1004D00090008F7780939000CCCF809190008F7D9B
:1004E000F9CF80919000877FF5CF8091A0008F7722
:1004F0008093A000BECF8091A0008F7DF9CF809126
:10050000A000877FF5CF809120018F778093200115
:10051000B0CF809120018F7DF9CF80912001877F1E
:10052000F5CFEE0FFF1F881F8BBF0790F691E02DD0
:060530001994F894FFCFBE
:00000001FF
